{
  "_format": "hh-sol-artifact-1",
  "contractName": "AMZToken",
  "sourceName": "contracts/AMZToken.sol",
  "abi": [
    {
      "inputs": [
        {
          "internalType": "string",
          "name": "name_",
          "type": "string"
        },
        {
          "internalType": "string",
          "name": "symbol_",
          "type": "string"
        },
        {
          "internalType": "uint256",
          "name": "initialValue",
          "type": "uint256"
        }
      ],
      "stateMutability": "nonpayable",
      "type": "constructor"
    },
    {
      "inputs": [
        {
          "internalType": "address",
          "name": "sender",
          "type": "address"
        },
        {
          "internalType": "uint256",
          "name": "balance",
          "type": "uint256"
        },
        {
          "internalType": "uint256",
          "name": "needed",
          "type": "uint256"
        }
      ],
      "name": "ERC20InsufficientBalance",
      "type": "error"
    },
    {
      "inputs": [
        {
          "internalType": "address",
          "name": "receiver",
          "type": "address"
        }
      ],
      "name": "ERC20InvalidReceiver",
      "type": "error"
    },
    {
      "inputs": [
        {
          "internalType": "address",
          "name": "sender",
          "type": "address"
        }
      ],
      "name": "ERC20InvalidSender",
      "type": "error"
    },
    {
      "anonymous": false,
      "inputs": [
        {
          "indexed": true,
          "internalType": "address",
          "name": "from",
          "type": "address"
        },
        {
          "indexed": true,
          "internalType": "address",
          "name": "to",
          "type": "address"
        },
        {
          "indexed": false,
          "internalType": "uint256",
          "name": "value",
          "type": "uint256"
        }
      ],
      "name": "Transfer",
      "type": "event"
    },
    {
      "inputs": [
        {
          "internalType": "address",
          "name": "to_",
          "type": "address"
        },
        {
          "internalType": "uint256",
          "name": "tokenAmount",
          "type": "uint256"
        }
      ],
      "name": "earnAMZ",
      "outputs": [],
      "stateMutability": "nonpayable",
      "type": "function"
    },
    {
      "inputs": [],
      "name": "seeBalance",
      "outputs": [
        {
          "internalType": "uint256",
          "name": "",
          "type": "uint256"
        }
      ],
      "stateMutability": "view",
      "type": "function"
    },
    {
      "inputs": [
        {
          "internalType": "address",
          "name": "to",
          "type": "address"
        },
        {
          "internalType": "uint256",
          "name": "value",
          "type": "uint256"
        }
      ],
      "name": "transfer",
      "outputs": [
        {
          "internalType": "bool",
          "name": "",
          "type": "bool"
        }
      ],
      "stateMutability": "nonpayable",
      "type": "function"
    },
    {
      "inputs": [
        {
          "internalType": "uint256",
          "name": "tokenAmount",
          "type": "uint256"
        }
      ],
      "name": "wasteAMZ",
      "outputs": [],
      "stateMutability": "nonpayable",
      "type": "function"
    }
  ],
  "bytecode": "0x60806040523480156200001157600080fd5b506040516200119638038062001196833981810160405281019062000037919062000542565b82600390816200004891906200081d565b5081600490816200005a91906200081d565b5033600160006101000a81548173ffffffffffffffffffffffffffffffffffffffff021916908373ffffffffffffffffffffffffffffffffffffffff160217905550620000ae3382620000b760201b60201c565b50505062000a3b565b600073ffffffffffffffffffffffffffffffffffffffff168273ffffffffffffffffffffffffffffffffffffffff16036200012c5760006040517fec442f0500000000000000000000000000000000000000000000000000000000815260040162000123919062000949565b60405180910390fd5b62000140600083836200014460201b60201c565b5050565b600073ffffffffffffffffffffffffffffffffffffffff168373ffffffffffffffffffffffffffffffffffffffff16036200019a5780600260008282546200018d919062000995565b9250508190555062000270565b60008060008573ffffffffffffffffffffffffffffffffffffffff1673ffffffffffffffffffffffffffffffffffffffff1681526020019081526020016000205490508181101562000229578381836040517fe450d38c0000000000000000000000000000000000000000000000000000000081526004016200022093929190620009e1565b60405180910390fd5b8181036000808673ffffffffffffffffffffffffffffffffffffffff1673ffffffffffffffffffffffffffffffffffffffff16815260200190815260200160002081905550505b600073ffffffffffffffffffffffffffffffffffffffff168273ffffffffffffffffffffffffffffffffffffffff1603620002bb578060026000828254039250508190555062000308565b806000808473ffffffffffffffffffffffffffffffffffffffff1673ffffffffffffffffffffffffffffffffffffffff168152602001908152602001600020600082825401925050819055505b8173ffffffffffffffffffffffffffffffffffffffff168373ffffffffffffffffffffffffffffffffffffffff167fddf252ad1be2c89b69c2b068fc378daa952ba7f163c4a11628f55a4df523b3ef8360405162000367919062000a1e565b60405180910390a3505050565b6000604051905090565b600080fd5b600080fd5b600080fd5b600080fd5b6000601f19601f8301169050919050565b7f4e487b7100000000000000000000000000000000000000000000000000000000600052604160045260246000fd5b620003dd8262000392565b810181811067ffffffffffffffff82111715620003ff57620003fe620003a3565b5b80604052505050565b60006200041462000374565b9050620004228282620003d2565b919050565b600067ffffffffffffffff821115620004455762000444620003a3565b5b620004508262000392565b9050602081019050919050565b60005b838110156200047d57808201518184015260208101905062000460565b60008484015250505050565b6000620004a06200049a8462000427565b62000408565b905082815260208101848484011115620004bf57620004be6200038d565b5b620004cc8482856200045d565b509392505050565b600082601f830112620004ec57620004eb62000388565b5b8151620004fe84826020860162000489565b91505092915050565b6000819050919050565b6200051c8162000507565b81146200052857600080fd5b50565b6000815190506200053c8162000511565b92915050565b6000806000606084860312156200055e576200055d6200037e565b5b600084015167ffffffffffffffff8111156200057f576200057e62000383565b5b6200058d86828701620004d4565b935050602084015167ffffffffffffffff811115620005b157620005b062000383565b5b620005bf86828701620004d4565b9250506040620005d2868287016200052b565b9150509250925092565b600081519050919050565b7f4e487b7100000000000000000000000000000000000000000000000000000000600052602260045260246000fd5b600060028204905060018216806200062f57607f821691505b602082108103620006455762000644620005e7565b5b50919050565b60008190508160005260206000209050919050565b60006020601f8301049050919050565b600082821b905092915050565b600060088302620006af7fffffffffffffffffffffffffffffffffffffffffffffffffffffffffffffffff8262000670565b620006bb868362000670565b95508019841693508086168417925050509392505050565b6000819050919050565b6000620006fe620006f8620006f28462000507565b620006d3565b62000507565b9050919050565b6000819050919050565b6200071a83620006dd565b62000732620007298262000705565b8484546200067d565b825550505050565b600090565b620007496200073a565b620007568184846200070f565b505050565b5b818110156200077e57620007726000826200073f565b6001810190506200075c565b5050565b601f821115620007cd5762000797816200064b565b620007a28462000660565b81016020851015620007b2578190505b620007ca620007c18562000660565b8301826200075b565b50505b505050565b600082821c905092915050565b6000620007f260001984600802620007d2565b1980831691505092915050565b60006200080d8383620007df565b9150826002028217905092915050565b6200082882620005dc565b67ffffffffffffffff811115620008445762000843620003a3565b5b62000850825462000616565b6200085d82828562000782565b600060209050601f83116001811462000895576000841562000880578287015190505b6200088c8582620007ff565b865550620008fc565b601f198416620008a5866200064b565b60005b82811015620008cf57848901518255600182019150602085019450602081019050620008a8565b86831015620008ef5784890151620008eb601f891682620007df565b8355505b6001600288020188555050505b505050505050565b600073ffffffffffffffffffffffffffffffffffffffff82169050919050565b6000620009318262000904565b9050919050565b620009438162000924565b82525050565b600060208201905062000960600083018462000938565b92915050565b7f4e487b7100000000000000000000000000000000000000000000000000000000600052601160045260246000fd5b6000620009a28262000507565b9150620009af8362000507565b9250828201905080821115620009ca57620009c962000966565b5b92915050565b620009db8162000507565b82525050565b6000606082019050620009f8600083018662000938565b62000a076020830185620009d0565b62000a166040830184620009d0565b949350505050565b600060208201905062000a356000830184620009d0565b92915050565b61074b8062000a4b6000396000f3fe608060405234801561001057600080fd5b506004361061004c5760003560e01c8063429a1bb0146100515780636d1860161461006f578063a9059cbb1461008b578063afd9c3be146100bb575b600080fd5b6100596100d7565b6040516100669190610504565b60405180910390f35b610089600480360381019061008491906105ae565b61011d565b005b6100a560048036038101906100a091906105ae565b610186565b6040516100b29190610609565b60405180910390f35b6100d560048036038101906100d09190610624565b6101a2565b005b60008060003373ffffffffffffffffffffffffffffffffffffffff1673ffffffffffffffffffffffffffffffffffffffff16815260200190815260200160002054905090565b600160009054906101000a900473ffffffffffffffffffffffffffffffffffffffff1673ffffffffffffffffffffffffffffffffffffffff163373ffffffffffffffffffffffffffffffffffffffff161461017757600080fd5b6101818282610186565b505050565b6000803390506101978185856101d2565b600191505092915050565b6101ce600160009054906101000a900473ffffffffffffffffffffffffffffffffffffffff1682610186565b5050565b600073ffffffffffffffffffffffffffffffffffffffff168373ffffffffffffffffffffffffffffffffffffffff16036102445760006040517f96c6fd1e00000000000000000000000000000000000000000000000000000000815260040161023b9190610660565b60405180910390fd5b600073ffffffffffffffffffffffffffffffffffffffff168273ffffffffffffffffffffffffffffffffffffffff16036102b65760006040517fec442f050000000000000000000000000000000000000000000000000000000081526004016102ad9190610660565b60405180910390fd5b6102c18383836102c6565b505050565b600073ffffffffffffffffffffffffffffffffffffffff168373ffffffffffffffffffffffffffffffffffffffff160361031857806002600082825461030c91906106aa565b925050819055506103eb565b60008060008573ffffffffffffffffffffffffffffffffffffffff1673ffffffffffffffffffffffffffffffffffffffff168152602001908152602001600020549050818110156103a4578381836040517fe450d38c00000000000000000000000000000000000000000000000000000000815260040161039b939291906106de565b60405180910390fd5b8181036000808673ffffffffffffffffffffffffffffffffffffffff1673ffffffffffffffffffffffffffffffffffffffff16815260200190815260200160002081905550505b600073ffffffffffffffffffffffffffffffffffffffff168273ffffffffffffffffffffffffffffffffffffffff16036104345780600260008282540392505081905550610481565b806000808473ffffffffffffffffffffffffffffffffffffffff1673ffffffffffffffffffffffffffffffffffffffff168152602001908152602001600020600082825401925050819055505b8173ffffffffffffffffffffffffffffffffffffffff168373ffffffffffffffffffffffffffffffffffffffff167fddf252ad1be2c89b69c2b068fc378daa952ba7f163c4a11628f55a4df523b3ef836040516104de9190610504565b60405180910390a3505050565b6000819050919050565b6104fe816104eb565b82525050565b600060208201905061051960008301846104f5565b92915050565b600080fd5b600073ffffffffffffffffffffffffffffffffffffffff82169050919050565b600061054f82610524565b9050919050565b61055f81610544565b811461056a57600080fd5b50565b60008135905061057c81610556565b92915050565b61058b816104eb565b811461059657600080fd5b50565b6000813590506105a881610582565b92915050565b600080604083850312156105c5576105c461051f565b5b60006105d38582860161056d565b92505060206105e485828601610599565b9150509250929050565b60008115159050919050565b610603816105ee565b82525050565b600060208201905061061e60008301846105fa565b92915050565b60006020828403121561063a5761063961051f565b5b600061064884828501610599565b91505092915050565b61065a81610544565b82525050565b60006020820190506106756000830184610651565b92915050565b7f4e487b7100000000000000000000000000000000000000000000000000000000600052601160045260246000fd5b60006106b5826104eb565b91506106c0836104eb565b92508282019050808211156106d8576106d761067b565b5b92915050565b60006060820190506106f36000830186610651565b61070060208301856104f5565b61070d60408301846104f5565b94935050505056fea264697066735822122089c29e481d5b0b9a4f8015683836a8952b3e21396fa92b326c8809946aa27cd264736f6c63430008180033",
  "linkReferences": {},
  "deployedLinkReferences": {}
}